:020000040800F2
:10000000000700209D01000801160008FD150008EA
:10001000FF15000825070008311E00080000000039
:10002000000000000000000000000000351A000879
:10003000BD140008000000009D160008051B000804
:10004000B7010008B7010008B7010008B7010008B0
:10005000B7010008B7010008B7010008B7010008A0
:10006000B7010008B7010008B7010008B701000890
:10007000591000089D100008B7010008B7010008DA
:10008000DD100008B7010008B7010008B70100083B
:10009000E1080008B7010008B7010008C114000812
:1000A000B7010008B7010008B7010008B701000850
:1000B000B7010008B7010008651B0008B701000878
:1000C000B7010008B7010008B7010008B701000830
:1000D000B7010008AD1C0008B7010008D51C0008D6
:1000E000B7010008B7010008B7010008B701000810
:1000F000B7010008B7010008B7010008B701000800
:10010000B7010008B7010008B7010008B7010008EF
:10011000B7010008B7010008B7010008B7010008DF
:10012000B7010008B701000821110008B701000855
:10013000B7010008B7010008B7010008B7010008BF
:10014000B7010008B7010008B7010008B7010008AF
:1001500059110008B7010008B7010008B7010008ED
:10016000B7010008B7010008B7010008B70100088F
:10017000B7010008B7010008B7010008B70100087F
:10018000B7010008B7010008DFF80CD000F02AFA28
:10019000004800473928000800070020064880472B
:1001A00006480047FEE7FEE7FEE7FEE7FEE7FEE75C
:1001B000FEE7FEE7FEE7FEE7091B000889010008ED
:1001C00000F0004230F000400AD0C10D01F560712E
:1001D000C0F3160042EA0151C208400711437047BC
:1001E00000200146704730B50B4601460020202212
:1001F000012409E021FA02F59D4205D303FA02F534
:10020000491B04FA02F52844151EA2F10102F1DC93
:1002100030BD2DE9F05F0546002092469B4688469A
:100220000646814640241BE0284641464746224672
:1002300000F0F9F953465A46C01A914110D31146BD
:100240001846224600F0E0F92D1A67EB01084F46E8
:1002500022460120002100F0D7F917EB00094E419A
:10026000201EA4F10104DFDC484631462A464346FD
:10027000BDE8F09F2DE9FE4F804681EA0300C00FE4
:100280000C46009021F0004123F00045B8EB02003D
:10029000A94105D24046214690461C460B460246DF
:1002A00023F00040104347D0270DC7F30A00C3F3E3
:1002B0000A510290401A019040286BDAC3F31300F0
:1002C00040F4801B0098924620B10023D2EB030A31
:1002D00063EB0B0B01985946C0F14002504600F009
:1002E00093F906460D4650465946019A00F0ABF97F
:1002F00010EB08006141002487EA115284EAE77399
:100300001A4340D0009A62B3019A012A4FEA075279
:1003100015DC001B61EB02014FF0004202EA0752BC
:10032000CDE90042001C41F5801132462B4600F019
:10033000ABF903B0BDE8F08F40462146F9E7001B5A
:1003400061EB0201001C41F5801300185B4120188D
:10035000A2F5001747EB030140EAD570B6196D41CD
:1003600011E06D084FEA360645EAC0754FEA0752BC
:10037000001B61EB0201001C41F5801149084FEAA6
:1003800030000019514132462B4603B0BDE8F04F12
:1003900000F06BB90098012240000023D0EB02026C
:1003A00063EBE073009821464FEAE074B8EB00007D
:1003B00061EB0401E9E783F000435BE781F0004172
:1003C00058E72DE9FE4F81EA030404F0004421F0D0
:1003D000004100944FF0000B23F0004350EA010469
:1003E0005ED052EA03045BD0C3F30A54C1F30A554A
:1003F0002C44A4F2F3340194A0FB0254C1F3130182
:1004000041F48011C3F3130343F4801301FB02444E
:1004100000FB034E840A970A44EA815447EA835753
:10042000A4FB076802958D0A05FB07854FEA932C0C
:1004300004FB0C542705029D4FEA065847EA16377D
:10044000B5EB08056EEB070C870E920E47EA811795
:1004500042EA8312A7FB0201B6EB0B0164EB000436
:100460002B0D43EA0C335E1844EB1C50DA46514620
:10047000E7FB0201C5F313044FEA0B3343EA1453BD
:100480004FEA0432019C43EA0603A4F10C040294EF
:10049000009CCDE900B400F0F7F803B0BDE8F08FA0
:1004A00000200146F9E72DE9F04D81EA030404F04C
:1004B000004B21F0004514464FF0000A23F00041A4
:1004C00050EA050220D054EA01021DD0C5F30A57B4
:1004D0000246C5F31303C1F31300C1F30A5640F4F7
:1004E000801543F48013A7EB0608101BD64608F2CC
:1004F000FD3873EB050002D308F1010801E0921802
:100500005B41B8F1000F03DA00200146BDE8F08D31
:1005100000204FF48011064684460EE0171B73EB53
:10052000050705D3121B63EB050306434CEA010CD8
:1005300049084FEA300092185B4150EA0107EDD1BB
:1005400052EA030012D082EA040083EA050108435C
:1005500005D0101BAB4106D20122002306E0002289
:100560004FF0004302E06FF0010253101AEB060057
:100570004CEB085110EB0A0041EB0B01BDE8F04DCC
:1005800000F073B8C1F30A52C1F3130140F2FF3314
:1005900041F480119A4202DA00200146704740F28D
:1005A00033439A42A2F2334202DC524200F03BB89B
:1005B00000F02AB830B5041E71F1000404DB4FF0DE
:1005C0000044404264EB0101141E73F1000405DB9A
:1005D0001C464FF00043524263EB0403994208BFAC
:1005E000904230BD064C074D06E0E06840F0010344
:1005F00094E8070098471034AC42F6D3FFF7C8FDE3
:10060000642C0008842C0008202A04DB203A00FA1D
:1006100002F1002070479140C2F1200320FA03F359
:10062000194390407047202A04DB203A21FA02F057
:100630000021704721FA02F3D040C2F1200291401C
:10064000084319467047202A06DBCB17203A41FAA7
:1006500002F043EAE07306E041FA02F3D040C2F14F
:100660002002914008431946704710B5141E73F1DB
:10067000000408DA401C41F1000192185B411A4362
:1006800001D120F0010010BD2DE9F04D92469B46AE
:1006900011B1B1FA81F202E0B0FA80F22032904654
:1006A000FFF7B2FF04460F4640EA0A0041EA0B0199
:1006B00053465A46084313D0114653EA010019D055
:1006C000C8F140025046FFF7AEFF05460E465046C1
:1006D00059464246FFF798FF084305D0012004E041
:1006E00020463946BDE8F08D0020054346EAE07615
:1006F0002C4337430A986305E40AA0EB0800002264
:10070000FD0A44EA47540A3002D500200146E9E7D1
:10071000010510196941DDE9084500196941BDE885
:10072000F04DA2E7FEE70000184810B50268417BD3
:10073000174B807BA2F50074013C06D119801C8800
:1007400024021C801C8804431C80A2F50074023C17
:1007500006D159805C8824025C805C8804435C80FC
:10076000A2F50074033C06D199809C8824029C80E9
:100770009C8804439C80B2F5017F06D1D980D9883A
:100780000902D980D9880143D98010BD58000020C2
:100790004800002000B585B04FF4007000900020A4
:1007A0008DF808008DF80900104908208DF80A001E
:1007B00008888DF80C00020A8DF80B208888020A40
:1007C0008DF80D208DF80E0008898DF81000020AB2
:1007D0008DF80F208889010A8DF811108DF812000C
:1007E0006946034800F075FA05B000BD9C02002080
:1007F0000064004070B58AB00121022000F050FF73
:100800000121480600F058FF334D092211462846C1
:1008100000F0E0FE09220821284600F0DBFE4FF43C
:100820004071022408918DF8244008A9284600F060
:1008300095FE14208DF81C008DF81D4001258DF8C3
:100840001E508DF81F5007A800F0DCFE234E3046E6
:1008500000F09CF8684600F02CFA00248DF8064061
:100860008DF8074008208DF808408DF802408DF87B
:10087000040003218DF809408DF803408DF80A40EB
:100880008DF80510ADF800108DF80B506946304614
:1008900000F054F98DF816408DF817408DF8185077
:1008A000ADF80C40ADF81040ADF80E40ADF8124078
:1008B000ADF814408DF8195003A800F07DF801221E
:1008C0000221304600F032F901221146304600F094
:1008D0002DF90AB070BD0000000402400064004021
:1008E00010B50A4C0221204600F0CCF800280CD0AC
:1008F0000221204600F00EF8054A0021204600F0B3
:1009000091F9BDE81040FFF70FBF10BD0064004033
:100910005800002030B5082310240422B1F5007FD0
:100920001DD010DC202929D007DC012921D0042981
:1009300022D0082900D1C46030BD402920D0B1F5B3
:10094000807FF9D10BE00025B1F5004F06D008DC1F
:10095000B1F5806F03D0B1F5006FEDD185614260D4
:1009600030BDB1F5803F0DD0B1F5003FF8D1446006
:1009700030BD0549816030BDC36030BD036130BD0D
:10098000046130BD436030BD01010100094910B56B
:1009900088424FF0010101D14C0601E04FF0806424
:1009A000204600F095FE2046BDE81040002100F0F2
:1009B0008FBE000000640040F0B5827A2F4D012107
:1009C00091402A6842F001022A602C4E1C3632689F
:1009D0008A433260294A047B294B0C32A4B914683B
:1009E0008C4314604488C78844EA0744877A03EB41
:1009F000C707C7F840460488878844EA0744877ACF
:100A000003EBC707C7F84446047B012C12D11468D6
:100A10000C431460847A026803EBC4044FEA324248
:100A2000C4F84026847A426803EBC4034FEA32429A
:100A3000C3F84426114AC37A121D002B136806D04E
:100A40000B4313600D4A0389143213B104E08B4346
:100A5000F7E713688B4313600389012B02D11368F6
:100A60000B431360407B012802D13068084330609B
:100A7000286820F001002860F0BD000000660040FA
:100A8000006000400246002053690B424AD0B1F595
:100A9000807F3BD013DC08292ED007DC012926D02B
:100AA000022927D004293DD1D0682BE0102925D078
:100AB000202926D0402935D11069102130E0B1F528
:100AC000004F2BD00BDCB1F5007F22D0B1F5806F49
:100AD00022D0B1F5006F25D19069702120E0B1F5E9
:100AE000803F11D0B1F5003F1CD15068E5E7906818
:100AF0000D4915E0D06802E0D068DEE710690321F7
:100B00000EE0106908210BE05068FBE790690121B5
:100B100006E09069022103E0906900E0506804213A
:100B200000F094BA7047000001010100002A4269F8
:100B300001D00A4300E08A434261704710B5036860
:100B4000002223F002030360036843F00103036003
:100B50004FF6FF7300E0521C4468E40701D19A424B
:100B6000F9D14268D2073ED08A79012A02683CD086
:100B700022F080020260CA79012A026838D022F08D
:100B8000400202600A7A012A026834D022F0200270
:100B900002604A7A012A026830D022F01002026014
:100BA0008A7A012A02682CD022F008020260CA7AEE
:100BB000012A026828D022F0040202608A78CC78E8
:100BC000920742EA04620C7942EA04424C790988AD
:100BD00042EA0452491E0A43C261016821F0010140
:100BE0000160002114E0002010BD42F08002C1E746
:100BF00042F04002C5E742F02002C9E742F010028D
:100C0000CDE742F00802D1E742F00402D5E7491CE3
:100C10004268D20701D09942F9D14068C007E2D1B9
:100C2000012010BD10B500EB0113D3F8B04114F052
:100C300004041472D3F8B04133D0E4085460D3F8FC
:100C4000B04104F002045472D3F8B44104F00F042C
:100C50009472D3F8B441240AD474D3F8B841D4724E
:100C6000D3F8B841240A1473D3F8B841240C547350
:100C7000D3F8B841240E9473D3F8BC41D473D3F89D
:100C8000BC41240A1474D3F8BC41240C5474D3F826
:100C9000BC311B0E937439B1016941F0200101612F
:100CA00010BD640D1460CAE7C16841F02001C16045
:100CB00010BD00218171C171017241728172C172D6
:100CC0008170C170032101710221417101210180F4
:100CD000704730B50246002093685B0108D49068E5
:100CE000000101D5012003E09068C00037D5022043
:100CF00002EB0012D2F8803103F00103C2F8803118
:100D00000B7A73B3D2F880414D681C434B7A43EAA7
:100D1000C5031C43C2F880418B7A03F00F038B722A
:100D2000D2F8843123F00F03C2F88431D2F8843131
:100D30008C7A2343C2F88431CB7ACC6843EA04230B
:100D4000C2F88831CB7B096943EA0121C2F88C11D2
:100D5000D2F8801141F00101C2F8801130BD0420A9
:100D600030BDD2F880314C7A23430C8843EA445397
:100D7000C2F88031D0E700002DE9F041A84A2DEDFE
:100D8000028B82B0507A9FEDA78AA74C012802D02F
:100D900003284ED04FE010884FF49675A0F5806080
:100DA00001B2E1805088A0F5806000B22081938874
:100DB000A842A3F580631BB26380D288A2F580624B
:100DC000A280994A528902DD42F0010201E002F05C
:100DD000FE026281954A904203DA608940F0020087
:100DE00002E0A07A00F0FD006081914203DA80B257
:100DF00040F0040002E0A07A00F0FB006081A9420C
:100E000003DD80B240F0080002E0A07A00F0F700B5
:100E10006081642B02DDBBEE0E0A04E013F1640F67
:100E200004DAB3EE0E0A84ED0A0A04E084ED0A8ABD
:100E300001E0508A60817E48008800EE100AB8EE1A
:100E4000400A9FED7C1A7C4DC0EE010AB3EE080A01
:100E5000284620EE800A84ED0B0A296ED4ED040AA0
:100E60008847A189608981420ED085ED0B8A85ED86
:100E70000A8A85ED098A85ED138A84ED048A84ED5A
:100E8000088A84ED098AA081F6EE000ABEEE001AF7
:100E90000B2830D2DFE800F02F1F242F2706132F56
:100EA0002C0D180060EE200A20EE010AC4ED080A9D
:100EB00002E020EE200A04E084ED090A21E020EEA1
:100EC000010A84ED080AF7E720EE011A20EE200A55
:100ED00084ED081AF0E784ED080A84ED098A10E031
:100EE000B1EE400AF7E784ED088AB1EE400AE3E785
:100EF00084ED088AE0E784ED088A84ED098A84EDB0
:100F0000048A94ED040A4D4A10EE101A914206DA52
:100F100028B1DFED4B0A30EE200A84ED040A94ED8F
:100F2000081AD4ED091A94ED0A0AB1EE042A71EEFA
:100F3000210A31EE611AF9EE041A424D70EEC02A10
:100F400041F288344FF44877664262EE822AC7F154
:100F5000000833463A46FDEEE22A414612EE900A78
:100F600071EE002A31EE401A30EE800A286062EEFF
:100F7000A12A21EE021A20EE210AFDEEE22ABDEEA0
:100F8000C11ABDEEC00AC5ED012A85ED021A85ED34
:100F9000030A009401F0C6FC2860009433463A46E8
:100FA0004146686801F0BEFC6860009433463A46EA
:100FB0004146A86801F0B6FCA860009433463A4662
:100FC0004146E86801F0AEFC174F00241E4E303752
:100FD000A5F11008E86055F8240000EE100A37F972
:100FE0001400F8EEC00A00EE100A04EBC40000EB97
:100FF000041006EB8000B8EEC00A016E8847BDEE13
:10100000C00A10EE100A48F82400641CE4B2042C54
:10101000E1D302B0BDEC028BBDE8F041FFF7BABBF3
:10102000740200200000000018000020D4FEFFFF22
:101030006C0000200000C842100200200000404266
:10104000CDCC4C3EAC0200208000002002460020A7
:101050000A4200D00120704770B50C4D0C4C294657
:10106000204600F0ABF900280ED00A49204600F0D7
:1010700095F82946204600F0A7F807490120087096
:10108000BDE8704000F086BB70BD00000088001015
:1010900028600240000800101400002070B50C4DBC
:1010A0000C4C2946204600F089F900280FD04FF05B
:1010B0008151204600F072F82946204600F084F85D
:1010C000054901200870BDE8704000F063BB70BDA9
:1010D00000802010406002401400002070B50C4DCC
:1010E0000C4C2946204600F069F900280ED00A4928
:1010F000204600F053F82946204600F065F80749DD
:1011000001200870BDE8704000F044BB70BD0000D5
:1011100000880020886002400008002014000020A1
:1011200070B50A4D0A4C2946204600F047F90028C0
:101130000BD04FF08151204600F030F82946204670
:1011400000F042F803490120487070BD0080201073
:10115000406402401400002070B50C4D0C4C294630
:10116000204600F02BF900280ED00A49204600F056
:1011700015F82946204600F027F807490120087095
:10118000BDE8704000F006BB70BD00000088002084
:10119000886402400008002014000020074A9042A2
:1011A00001D2074801E005481038064A8B0001EAE1
:1011B000020101D5C1607047816070471064024030
:1011C000006002407D0F7D0F074A904201D2074820
:1011D00001E005481038064A8B0001EA020101D5FA
:1011E000C160704781607047106402400060024037
:1011F0007D0F7D0F0029016802D041F0010101E05F
:1012000021F00101016070472DE9F04790B00746D9
:10121000DDE918981B480E46DDF868A01C46154607
:1012200087424FF0010101D9880501E04FF4001019
:1012300000F036FA384600F027F8384600F0B6F8E5
:101240000028FAD1CDE9024005AACDF810904FF45C
:10125000806182E80305891009914FF44031CDE99E
:101260000A100321CDE90C10CDE900650E90694606
:10127000384600F0E3F801213846FFF7BBFF10B015
:10128000BDE8F087006402402DE9F043016821F0D9
:10129000010101600021016041608160C160016164
:1012A000212141613C493C4A3D251039904202D1FF
:1012B0008D60BDE8F083384A4FF47466183290426E
:1012C00001D18E60F5E7344A4FF474173032904202
:1012D00001D18F60EDE7304A4FF0746C4832904294
:1012E00002D1C1F808C0E4E72B4B2C4A6033984286
:1012F00001D1CA60DDE7284C294B7834A04201D1E6
:10130000CB60D6E7DFF89080264C08F19008404586
:1013100001D1CC60CDE7DFF880804FF03D5908F176
:10132000A808404502D1C1F80C90C2E71E49DFF879
:1013300078800839404501D10D60BAE71A4D18355B
:10134000A84201D10E60B4E7174D3035A84201D153
:101350000F60AEE7144D4835A84202D1C1F800C075
:10136000A7E7114D10496035091FA84201D10A6055
:101370009FE70D4A7832904201D10B6099E70A4A03
:101380009032904201D10C6093E7074AA832904214
:101390008FD1C1F800908CE7106002403D00002022
:1013A000400F002000003D20106402400146002054
:1013B0000968C90700D001207047000030B5104A05
:1013C0000024904201D20F4A01E00D4A103A0E4B20
:1013D000194205D01E2303EAD12503682B4002E001
:1013E000406900F08003880001D5506800E0106873
:1013F000064A1040084201D003B10124204630BD06
:1014000010640240006002403C0F3C0F7D0F7D0FD6
:101410000B0607D5436912B143F0800301E023F0C6
:1014200080034361802908D0002A026801F01E0170
:1014300001D00A4300E08A430260704730B5036878
:10144000124ACC6813400A682243D1E905452C436F
:101450002243CC6922430C6A22434C6A22438C6AA1
:1014600022434C6B22438C6B22431A430260426935
:1014700022F00703D1E90B2422431A4342610A698F
:1014800042604A6882608968C16030BD3F801CF05C
:1014900038B50D468DF8000004998DF801308DF8AF
:1014A000021001208DF803001446684600F0AAF8E7
:1014B000012221462846FFF7ABFF38BD70470000E8
:1014C00070B5202000F040F8002831D0202000F036
:1014D00035F8184D1021284600F08CF8072000F050
:1014E00075FA04460146272000F088FA600607D501
:1014F00020221149612000F045FAFF21E2200FE08F
:1015000014F0300F4FF0FF0105D0E12000F076FA23
:101510000F21202004E0E22000F070FAFF21E120FA
:1015200000F06CFA2846BDE87040102100F064B865
:1015300070BD000000080240BC02002001490860A4
:1015400070470000143C0140034A01460020126825
:101550000A4200D001207047143C0140F0B500223F
:1015600001274FF0030C0B6807FA02F52B40AB4242
:101570002CD1066853000CFA03F4A64306600E79DA
:10158000D0F800E09E4046EA0E0606600E79012E75
:1015900001D0022E12D18668A64386604E79D0F81B
:1015A00008E09E4046EA0E0686604668AE43466006
:1015B00045688E799640B6B235434560C568A54307
:1015C000C560CC799C40C3681C43C460521C102A7F
:1015D000C9D3F0BD4B07DB0E9A40C90810B500EB2C
:1015E0008100016A0F249C40A1430162016A1143FA
:1015F000016210BD4183704701837047FEE7FEE73B
:101600007047000030B50F23C27801780125FAB188
:10161000144A126801F1E02102F4E062C2F5E062CE
:10162000C2F30722C2F10404D3404278A240847876
:101630001C401443220181F80024007800F01F01AF
:101640008D404009800000F1E020C0F8005130BD1D
:1016500001F01F0085404809800000F1E020C0F83B
:10166000805130BD0CED00E002490843024908609A
:10167000704700000000FA050CED00E080F8501003
:10168000C0E91523034980EC030AC16502490166DC
:10169000704700003B2B0008E52900087047000058
:1016A000044A0029116801D0014300E08143116020
:1016B0007047000030380240044A0029116801D008
:1016C000014300E081431160704700004038024050
:1016D000044A0029116801D0014300E081431160F0
:1016E0007047000020380240044A0029116801D0E8
:1016F000014300E08143116070470000443802401C
:1017000070B5204B1968204C11F00C0104D01F4E0D
:10171000042903D0082903D004601BE0066019E007
:10172000184A121F1168C1F38055116801F03F017A
:1017300015B1B6FBF1F101E0B4FBF1F114681268E8
:10174000C4F388146143C2F30142521C5200B1FB3E
:10175000F2F1016019680F2202EA11110C4A545C7F
:101760000168E14041601C68072505EA9424145D86
:1017700021FA04F484601B6805EA5333D25CD1403B
:10178000C16070BD083802400024F40040787D013B
:101790000000002018480188C1F30A02A0F11401DA
:1017A0000A804278D308827843EA4213C3F30A03DB
:1017B0004B80C378920942EA8303027943EA822389
:1017C000C3F30A038B805308427943EAC213C3F37D
:1017D0000A03CB8093090B72C2F301124A72C288CA
:1017E0004A8102898A814289CA81027B0A74427BCA
:1017F0004A74C08948827047880200202DE9F04170
:101800008046012188B00846FFF74AFF01210803FE
:10181000FFF76AFF2F4F052211463846FFF7DAFE21
:10182000052206213846FFF7D5FE05220721384656
:10183000FFF7D0FE052204213846FFF7CBFEE0205B
:10184000022500908DF8045000248DF806400320F6
:101850008DF8050001268DF8076069463846FFF7C8
:101860007DFE8DF8045010208DF8066000908DF8F4
:1018700005508DF8076069463846FFF76FFEADF8F2
:101880000E40A802ADF80A40ADF81040ADF80C00CB
:10189000ADF80840ADF816400720ADF812400E4CE8
:1018A000ADF81800B8F1000F04D10122114620460E
:1018B00000F01EF8A08820F00400A08002A92046B5
:1018C00000F029F80121204600F008F808B0BDE832
:1018D000F081000000000240003001400029018832
:1018E00002D041F0400101E021F040010180704749
:1018F000002A828801D00A4300E08A438280704730
:101900000246002012890A4200D0012070478089D7
:1019100070478181704730B502884C8802F441538A
:101920000A88CD8822438C882C4322430C89224389
:101930004C8922438C892243CC8922431A4302805A
:10194000828B22F400628283098A018230BD00000A
:1019500070B50B4C054602212046FFF7D1FF002849
:10196000F9D029462046FFF7D4FF01212046FFF792
:10197000C7FF0028F9D02046FFF7C9FFC0B270BDED
:10198000003800402DE9F047DFF83C900E46044651
:101990004FF48058154641464846FFF72BFE204637
:1019A000FFF7D6FF0746002405E0FF20FFF7D0FF32
:1019B0003055641CE4B2AC42F7D341464846FFF7C9
:1019C0001BFE3846BDE8F0870004024070B50A4DA2
:1019D00006464FF4805421462846FFF70BFE30465A
:1019E000FFF7B6FFFF20FFF7B3FF06462146284664
:1019F000FFF702FE304670BD000402402DE9F041C1
:101A00000B4D0E4607464FF4805421462846FFF7FB
:101A1000F1FD3846FFF79CFF07463046FFF798FF79
:101A200021462846FFF7E8FD3846BDE8F081000072
:101A300000040240704700000CB5002227490092C4
:101A40000192086840F4803008604FF4A0430868B1
:101A500000F4003001900098401C0090019810B9EB
:101A600000989842F3D10868800334D50120019092
:101A70001A484030026842F08052026018480268FA
:101A800042F4404202601548083002680260026871
:101A900042F400420260026842F4A0520260031F56
:101AA000104A1A600A6842F080720A600A6892015D
:101AB000FCD50D4940F205720A60016821F003016E
:101AC0000160016841F0020101600168C1F3810118
:101AD0000229FAD10CBD01920CBD00000038024071
:101AE0000070004019544007003C02404FF0E021D4
:101AF0000428086903D020F004000861704740F012
:101B00000400FAE770470000124810B5016841F47C
:101B1000700101601048016841F0010101600E4A46
:101B200000210832116002680C4B1A400260031D4C
:101B30000B4A1A60026822F48022026006480C30C8
:101B40000160FFF779FF03494FF0006080390860BA
:101B500010BD000088ED00E000380240FFFFF6FEF7
:101B60001030002410B5074C0121204600F04BF83E
:101B7000012801D1044908702046BDE81040012128
:101B800000F034B800080040500000201FB50121CB
:101B90000420FFF791FD5320ADF800004FF47A7058
:101BA00001900020104CADF80800ADF80200694625
:101BB000204600F03DF80121204600F01AF81E21D1
:101BC0008DF80C1002218DF80D108DF80E100120EB
:101BD0008DF80F0003A8FFF715FD012211462046DE
:101BE00000F01DF81FBD000000080040C94301823D
:101BF00070470029018802D041F0010101E021F085
:101C000001010180704702460020138A92890B422D
:101C100002EA010202D0002A00D001207047002A07
:101C2000828901D00A4300E08A4382817047000024
:101C300030B50288164C174DA0420DD0A8420BD0EB
:101C4000B0F1804F08D0144B984205D0134B984206
:101C500002D0134B984203D122F070034A881A43F2
:101C6000104B984206D0104B984203D022F4407398
:101C70000A891A4302804A68C2620A880285A04221
:101C800001D0A84201D1897A01860121818230BD2B
:101C90000000014000040140000400400008004032
:101CA000000C0040001000400014004070B5084DCA
:101CB00040F225542146284600F03CF810B1284651
:101CC00000F0AEF821462846BDE8704000F016B896
:101CD0000010014070B5084D40F2255421462846B9
:101CE00000F028F810B1284600F09AF8214628465E
:101CF000BDE8704000F002B800480040C9430180D0
:101D000070470029818902D041F4005101E021F49B
:101D1000005181817047002A828A01D00A4300E085
:101D20008A43828270470246002012880A4200D00D
:101D30000120704770B501F01F0501260024C1F392
:101D4000421306FA05F2012B0FD0022B0FD0838A23
:101D50004FEA11210088134206FA01F600EA060054
:101D600001D000B10124204670BD8389F0E7038AC9
:101D7000EEE700007FB50446008A0D46C98820F4CE
:101D8000405001432182A08941F20C618843A98817
:101D90002A8911436A8902431143A181A08A20F450
:101DA0004071A8890843A0826846FFF7A9FC1A4839
:101DB000844202D01948844201D1039800E002987D
:101DC000A189090400EBC00101EB0010296801D5CD
:101DD000490000E08900B0FBF1F06422B0FBF2F1B1
:101DE00009010B096FF018056B4300EB8300A38911
:101DF0001D044FF0320306D503EBC000B0FBF2F038
:101E000000F0070005E003EB0010B0FBF2F000F07B
:101E10000F00084320817FBD0010014000140140E5
:101E20008088C0F308007047C1F3080181807047C3
:101E3000FEE700000FB4054B10B503A9044A029851
:101E400000F0CAF810BC5DF814FB0000D9270008A8
:101E50005400002002E008C8121F08C1002AFAD16D
:101E600070477047002001E001C1121F002AFBD11A
:101E7000704700002DE9FF5FDDE90220010DDDF86C
:101E800038B0024318D044F61050A1F2FF3141435C
:101E90000D140F98012820D0A5EB0B00401C5FEA21
:101EA000000A4FF00004474EDFF81C91A046504650
:101EB00016D5CAF1000728E00F98012443A2012893
:101EC00008D0002100980F9BC0E90021C0E902431F
:101ED000BDE8FF9F6FEA0B01F4E7CBF10000DEE7FE
:101EE000074612E0F80707D02246334640464946E7
:101EF000FEF767FA80468946224633461046194661
:101F0000FEF75FFA04460E467F10002FEAD1DDE9A6
:101F10000201BAF1000F42464B4602DAFEF751FACF
:101F200001E0FEF7C0FA04460E460022284BFEF7F9
:101F300041FB03D84FF0FF30014607E00022254B5C
:101F400020463146FEF796F9FEF71CFB102409E007
:101F5000002C0ADB0A220023FEF75BF9019B3032DA
:101F60001A55641E50EA0102F2D1641C019AC4F1B0
:101F7000110314440F9A012A03D0012208430DD102
:101F80000AE0084304D000204FF0110B0F9080E7C7
:101F9000A3EB0B056D1E0DE05B4504DD4FF0000269
:101FA00005F1010504E003DA4FF00002A5F1010597
:101FB000002AECD000980F99C0E90231C0E9004531
:101FC00086E70000000024400000F03F30000000E1
:101FD0000000F0430000E03F2DE9FF4F95B09B4625
:101FE0008946064600250FE2252877D1002427469A
:101FF000F84A0121059400E0044316F8013F203B14
:1020000001FA03F01042F7D130782A2811D06FF08E
:102010002F033078A0F13002092A16D8059A44F02F
:10202000020402EB820203EB42021044761C05908C
:10203000EFE759F8042B0592002A03DA504244F4E2
:102040000054059044F00204761C30782E2816D1F6
:1020500016F8010F44F004042A280DD06FF02F0267
:102060003078A0F13003092B09D807EB870302EB86
:102070004303C718761CF3E759F8047B761C3078C5
:102080006C280FD006DC4C2817D068280DD06A28A1
:1020900014D104E0742810D07A280FD10DE044F454
:1020A00000140AE044F4801401E044F4401472780F
:1020B000824202D104F58014761C761C30786628A2
:1020C0000BD013DC582877D009DC002875D04528C0
:1020D000F6D04628F4D047281AD19DE118E06328AD
:1020E00035D0642879D0652812D195E1702873D055
:1020F00008DC6728F1D069286FD06E280DD06F28D2
:1021000006D1B5E073282CD0752875D0782874D006
:102110005A46179990476D1C75E1C4F30250022886
:1021200009D003280DD0D9F8001004280DD00D6077
:1021300009F1040967E1D9F80010EA17C1E9005272
:10214000F6E7D9F800100D80F2E70D70F0E719F806
:10215000041B8DF8001000208DF80100EA460120D4
:1021600003E059F804AB4FF0FF3061074FF0000176
:1021700002D40DE008F101018846B9420FDA80452A
:10218000F8DB1AF808100029F4D108E008F1010181
:1021900088468142FADB1AF808100029F6D1059822
:1021A0005B46A0EB080721463846179A00F094FAE0
:1021B000284400EB080507E04DE029E10DE01AF89E
:1021C000010B5A4617999047B8F10108F7D25B46C0
:1021D00021463846179A13E142E00A220092C4F3DE
:1021E00002524FF0000A022A08D059F804CB032A01
:1021F0004FEAEC710AD00DE029E02AE009F107016D
:1022000021F00702F2E802C1914609E00FFA8CFCC6
:102210004FEAEC71042A03D14FFA8CFC4FEAEC71BF
:10222000002907DA0A460021DCF1000C61EB02010B
:102230002D2202E0220504D52B228DF80420012254
:1022400003E0E20701D02022F7E7904659E00A2197
:1022500002E010220DE010214FF0000A00910BE087
:1022600010224FF0000A44F004040827009203E013
:1022700008224FF0000A0092C4F30252022A05D04D
:1022800059F804CB0021032A08D009E009F107011D
:1022900021F00702F2E802C1914605E01FFA8CFC2A
:1022A000042A01D10CF0FF0C4FF00008220728D5BA
:1022B000702806D0009B83F0100353EA0A0305D070
:1022C0000EE040228DF80420012208E05CEA0102C1
:1022D00006D030228DF804208DF8050002229046A9
:1022E000009B83F0080353EA0A030AD15CEA010267
:1022F00001D1620705D530228DF804204FF0010886
:102300007F1E582804D034A003900EA802900DE040
:1023100036A0F9E753466046009AFDF77AFF8446F7
:102320000398825C0298401E029002705CEA0100F1
:10233000F0D1029806A9081A00F1200A600702D518
:1023400024F4803400E00127574502DDA7EB0A00A2
:1023500000E0002000EB0A01009005984144401A7B
:102360000590E00306D45B462146179A059800F0D5
:10237000B3F90544002706E001A85A46C05D179945
:1023800090476D1C7F1C4745F6DBE0030CD55B4690
:102390002146179A059800F09FF9054404E0302083
:1023A0005A46179990476D1C0099481E00900029C5
:1023B000F5DC08E0029802995A460078491C02911F
:1023C000179990476D1CBAF10001AAF1010AF1DCDE
:1023D00065E10000092801003031323334353637E9
:1023E0003839616263646566000000003031323361
:1023F0003435363738394142434445460000000001
:1024000000F058F90544761C307800287FF4ECADD4
:1024100019B02846BDE8F08F620700D4062709F1FD
:10242000070222F0070CFCE80223E14603F0004813
:102430005FEA080C02D00FF2702C0DE05FEA045C3A
:1024400002D50FF2682C07E05FEAC47C02D00FF2DD
:10245000602C01E0AFF2700C4FF0FF3823F0004326
:10246000CDF850C065280CD006DC452809D0462898
:102470001DD047283DD13DE0662818D067287ED181
:1024800038E00021112F01DB112000E0781CCDE99C
:10249000000106A90EA8FFF7EDFCDDE90F010E9A79
:1024A00003910021009207F1010A04914DE04FF0E1
:1024B00000400097CDE9011006A90EA8FFF7DAFC4D
:1024C000DDE90F0203920E9B11990022DDF80CA0AA
:1024D0000093049211B9791C00EB010AB7EB0A00D2
:1024E00004D4C0F1FF3007F1010A0490AAEB070001
:1024F000019044E0012F00DA01270021112F01DDB6
:10250000112000E03846CDE9000106A90EA8FFF72A
:10251000B1FCDDE90F010E9A0391002104910092B4
:10252000BA4621070CD40399514500DA8A46BAF11C
:10253000010F05DD009AAAF10101515C302908D094
:10254000B84202DA10F1040F06DA0121CDE90110D8
:1025500015E0AAF10101E9E7002805DC049901442E
:102560000491AAEB000102E0411C514500DD8A46BE
:102570000499401A401C01904FF00040029020073F
:1025800004D40198504501DBCDF8048000208DF87B
:102590004F0002980DF14F07B0F1004F25D02B20CE
:1025A0000E9002984FF0020800280CDA4042029088
:1025B0002D200E9007E00A210298FDF714FE30311D
:1025C000029007F8011DB8F10001A8F10108F2DC42
:1025D00002980028EFD1791E0E980870307800F02C
:1025E000200040F0450007F8020D12A8C01B00F1C2
:1025F00007081498007800B1012000EB0A01019847
:1026000001EBE07105984144401A401E0590E0033B
:1026100006D45B462146179A059800F05DF80544FC
:102620001498007818B15A46179990476D1CE0032A
:1026300024D55B462146179A059800F04DF80544CD
:102640001CE00498002807DBDDE90301884203DD74
:102650000098405C179901E0179930205A4690473E
:10266000049805F10105401C04900198401E01905A
:1026700004D12E205A46179990476D1CBAF10001DB
:10268000AAF1010ADDDC05E017F8010B5A4617999B
:1026900090476D1CB8F10001A8F10108F4DC5B461D
:1026A0002146179A0598ABE62D0000002B0000008C
:1026B000200000002DE9F041044600251E46174683
:1026C000880404D405E039462020B0476D1C641E00
:1026D000F9D52846BDE8F0812DE9F04104460025F2
:1026E0001E469046C80301D5302700E02027880405
:1026F00004D505E041463846B0476D1C641EF9D547
:102700002846BDE8F081D0ED000AF4EEC00AF1EEF3
:1027100010FA01DD80ED000AD0ED000AB1EE400AAA
:10272000F4EEC00AF1EE10FA01D280ED000A704713
:10273000F0B5174DDFED171A9FED172A002440F66C
:10274000B8364FF4FA5704EBC40000EB041005EB65
:102750008000B0EE611AF0EE420AB0EE040A334691
:102760003A460421FEF78AFF641CE4B2042CEAD343
:10277000BDE8F04064239FED091ADFED090A9FEDE3
:10278000090A4FF48C7204210748FEF777BF000056
:10279000800000209A99993E4260653C000000004C
:1027A0000AD7233C3D0A573E1002002010B50446CC
:1027B0006FF00400FFF79AF90649E00800EB4002C9
:1027C0000870C2EBC0104FF6FF7202EAC0004880EA
:1027D00010BD00001000002070B5074D0446C1B2C6
:1027E0002846FFF721FB40212846FFF79CFA0028E6
:1027F000F9D0204670BD0000001001407CB50121D9
:102800000420FEF74DFF01248DF8044000208DF8D0
:102810000600022503208DF8055000908DF8074032
:1028200069460448FEF79AFE02481A300480801E6A
:1028300005807CBD000802400EB5A820FFF7B6FF5A
:102840004FF4A060FEF710FF00F0C6F9FDF7D2FFCD
:1028500000F076F900251220CDE90005244A254E26
:10286000224B510630460295FEF7CEFC022400238F
:10287000102231460C200094FEF70AFE01210020B0
:10288000FEF7BCFF2203911004208DE807001B4ACD
:102890001B4E194BD1053046FEF7B6FC0023102223
:1028A00031463A200094FEF7F3FDFFF741FFFFF7B2
:1028B000A5FFFFF76BF913A0FFF7BCFA144C154EF8
:1028C000154F20780128FCD12570FEF755FA00F04D
:1028D00033F83068FDF774FC41EC100B3868009059
:1028E00053EC102B0DA0FFF7A5FAEAE788020020B1
:1028F00004480040286002406C0000200C30014079
:10290000406402400ABDF8C8EBD6F7D1ADBBB700B2
:102910005000002028000020AC0200202566202561
:102920006420000010B5401A029CE41A6043511A5A
:1029300090FBF1F0184410BD2149224A9FED221A64
:102940000878401CC0B208701288142800EE102AC3
:10295000B8EE400AC0EE010A91ED070AB3EE081A7C
:1029600000EE810A81ED070A29D3B3EE041A002094
:10297000C0EE010A9FED150A08709FED151AC1ED12
:10298000060A70EEC00A91ED050A00EEC10A81ED5B
:10299000050AB5EEC00AF1EE10FA03D20D4A012085
:1029A000108008E010EE100A0B4A904203DB9FED06
:1029B0000B0A81ED050A9FED0A0A81ED070A7047AF
:1029C000180000206C0000200000C8420000A04257
:1029D0000AD7A33C18080240000070420000704271
:1029E0000000000010B580ED080A30EEC00AC0ED0E
:1029F000050A044680ED0B0A90F850103430D4EDEF
:102A00000A0A032902D0042935D074E094ED001A93
:102A100021EE001A84ED0C1A94ED0D1AD4ED011A72
:102A200001EE801A30EE600A84ED0D1AD4ED020A30
:102A300020EE200A84ED0E0A94ED160AB8EE400A44
:102A4000FFF761FE94ED0C0AD4ED0D0A04F13C0091
:102A500030EE200AD4ED0E0A30EE200A84ED0F0A83
:102A600094ED150AB8EE400AFFF74DFE94ED0F0AFB
:102A700084ED100A3FE030EE601AD4ED001A21EE2A
:102A8000211A84ED0C1A94ED011A21EE001A84ED3E
:102A90000D1AB0EE001A00EEC10AD4ED090A30EEAC
:102AA000200AD4ED020A20EE200A84ED0E0A94EDED
:102AB000160AB8EE400AFFF726FE94ED0C0AD4ED94
:102AC0000D0A04F1480030EE200AD4ED0E0A30EE73
:102AD000200A84ED110AD4ED130A30EE800A84ED49
:102AE000120A94ED150AB8EE400AFFF70CFE94EDB9
:102AF000120A84ED130A94ED0A0A84ED090A94ED92
:102B00000B0A84ED0A0A94ED070A84ED060A94ED97
:102B1000080A84ED070A94ED040A84ED030A94ED93
:102B2000050A84ED040A94F85000032802D094EDBD
:102B3000120A10BD94ED0F0A10BD80EC030A704715
:102B400030B587B001210420FEF7AAFD01218804D9
:102B5000FEF7B2FD1D4D07220A212846FEF73AFD79
:102B600007220B212846FEF735FD40F60A000490A7
:102B700002208DF8140003208DF8150000248DF834
:102B8000164001218DF8171004A92846FEF7E6FC2F
:102B90000F480090ADF804402815ADF80640ADF898
:102BA0000800ADF80C400C200A4CADF80A0069464C
:102BB0002046FFF7DFF801212046FFF7A2F80122A7
:102BC00040212046FFF7A7F807B030BD00080240BB
:102BD000A08601000048004030B5012187B00846BA
:102BE000FEF75EFD01211020FEF77EFD1B4D072242
:102BF0000A212846FEF7EEFC072209212846FEF7A7
:102C0000E9FC4FF4C060049002208DF8140003200A
:102C10008DF8150000248DF8164001218DF817104D
:102C200004A92846FEF79AFC4FF4E130ADF80440C1
:102C30000090ADF80640ADF80840ADF80C400C200F
:102C4000074CADF80A0069462046FFF793F80121CA
:102C50002046FFF756F807B030BD000000000240E4
:102C600000100140842C00080000002058000000E3
:102C7000541E0008DC2C000858000020A8060000A4
:102C8000641E0008000000000102030401020304A6
:102C90000607080900000000000000000000000016
:102CA0000000000000000000000000000000000024
:102CB0000000704200000000000000000000000062
:102CC0000000000000000000000000000000000004
:0C2CD000000000000000000000000000F8
:040000050800018965
:00000001FF
