:020000040800F2
:10000000300400209D01000803090008FF080008D3
:100010000109000811020008150D00080000000089
:10002000000000000000000000000000590A000865
:1000300065080008000000007D090008290B000881
:10004000B7010008B7010008B7010008B7010008B0
:10005000B7010008B7010008B7010008B7010008A0
:10006000B7010008B7010008B7010008B701000890
:10007000B7010008B7010008B7010008B701000880
:10008000B7010008B7010008B70100086D030008B8
:1000900019030008B7010008B7010008B7010008FC
:1000A000B7010008B7010008B7010008B701000850
:1000B000B7010008B7010008B7010008B701000840
:1000C000B7010008B7010008B7010008B701000830
:1000D000B7010008B7010008890B0008B701000844
:1000E000B7010008B7010008B7010008B701000810
:1000F000B7010008B7010008B7010008B701000800
:10010000B7010008B7010008B7010008B7010008EF
:10011000B7010008B7010008B7010008B7010008DF
:10012000B7010008B7010008B7010008B7010008CF
:10013000B7010008B7010008B7010008B7010008BF
:10014000B7010008B7010008B7010008B7010008AF
:10015000B7010008B7010008B7010008B70100089F
:10016000B7010008B7010008B7010008B70100088F
:10017000B7010008B7010008B7010008B70100087F
:10018000B7010008B7010008DFF80CD000F02EF826
:1001900000480047FD0E0008300400200648804754
:1001A00006480047FEE7FEE7FEE7FEE7FEE7FEE75C
:1001B000FEE7FEE7FEE7FEE72D0B000889010008D9
:1001C00030B50B46014600202022012409E021FA27
:1001D00002F59D4205D303FA02F5491B04FA02F524
:1001E0002844151EA2F10102F1DC30BD064C074D7A
:1001F00006E0E06840F0010394E8070098471034F7
:10020000AC42F6D3FFF7C4FFE00F0008001000086F
:10021000FEE7000070B501218AB0084600F0B0FB8F
:100220000121480600F0B8FB394C09220B21204679
:1002300000F055FB09220C21204600F050FB4FF442
:10024000C051089102218DF8241008A9204600F021
:100250000AFB14208DF81C0000248DF81D40012598
:100260008DF81E508DF81F5007A800F04BFB13208F
:100270008DF81C008DF81D508DF81E508DF81F5004
:1002800007A800F03FFB234E304600F0BFF8684659
:1002900000F080FA8DF806408DF8074008208DF8B0
:1002A00008408DF802408DF8040003218DF80940C4
:1002B0008DF803408DF80A408DF80510ADF8001058
:1002C0008DF80B506946304600F078F98DF81640ED
:1002D0008DF817408DF81850ADF80C40ADF810406F
:1002E000ADF80E40ADF81240ADF814408DF819503D
:1002F00003A800F0A1F801220221304600F056F9CF
:1003000001221146304600F051F90AB070BD0000DC
:10031000000002400064004030B585B000F00AFAE9
:10032000104C0221204600F0EDF8002817D00221E1
:10033000204600F02FF86A460021204600F0B2F96E
:1003400009A0019900F0E8FC00246D462819C17A43
:1003500005A000F0E1FC641CE4B2082CF6D305B063
:1003600030BD0000006400402564000010B5074C5B
:100370000121204600F0C6F8002806D001212046C1
:1003800000F008F802490120087010BD0064004028
:100390001600002030B5082310240422B1F5007F98
:1003A0001DD010DC202929D007DC012921D0042907
:1003B00022D0082900D1C46030BD402920D0B1F539
:1003C000807FF9D10BE00025B1F5004F06D008DCA5
:1003D000B1F5806F03D0B1F5006FEDD1856142605A
:1003E00030BDB1F5803F0DD0B1F5003FF8D144608C
:1003F00030BD0549816030BDC36030BD036130BD93
:10040000046130BD436030BD01010100094910B5F0
:1004100088424FF0010101D14C0601E04FF08064A9
:10042000204600F0C5FA2046BDE81040002100F04B
:10043000BFBA000000640040F0B5827A2F4D012160
:1004400091402A6842F001022A602C4E1C36326824
:100450008A433260294A047B294B0C32A4B91468C0
:100460008C4314604488C78844EA0744877A03EBC6
:10047000C707C7F840460488878844EA0744877A54
:1004800003EBC707C7F84446047B012C12D114685C
:100490000C431460847A026803EBC4044FEA3242CE
:1004A000C4F84026847A426803EBC4034FEA324220
:1004B000C3F84426114AC37A121D002B136806D0D4
:1004C0000B4313600D4A0389143213B104E08B43CC
:1004D000F7E713688B4313600389012B02D113687C
:1004E0000B431360407B012802D130680843306021
:1004F000286820F001002860F0BD00000066004080
:10050000006000400246002053690B424AD0B1F51A
:10051000807F3BD013DC08292ED007DC012926D0B0
:10052000022927D004293DD1D0682BE0102925D0FD
:10053000202926D0402935D11069102130E0B1F5AD
:10054000004F2BD00BDCB1F5007F22D0B1F5806FCE
:1005500022D0B1F5006F25D19069702120E0B1F56E
:10056000803F11D0B1F5003F1CD15068E5E790689D
:100570000D4915E0D06802E0D068DEE7106903217C
:100580000EE0106908210BE05068FBE7906901213B
:1005900006E09069022103E0906900E050680421C0
:1005A00000F05AB97047000001010100002A4269B9
:1005B00001D00A4300E08A434261704710B50368E6
:1005C000002223F002030360036843F00103036089
:1005D0004FF6FF7300E0521C4468E40701D19A42D1
:1005E000F9D14268D2073ED08A79012A02683CD00C
:1005F00022F080020260CA79012A026838D022F013
:10060000400202600A7A012A026834D022F02002F5
:1006100002604A7A012A026830D022F01002026099
:100620008A7A012A02682CD022F008020260CA7A73
:10063000012A026828D022F0040202608A78CC786D
:10064000920742EA04620C7942EA04424C79098832
:1006500042EA0452491E0A43C261016821F00101C5
:100660000160002114E0002010BD42F08002C1E7CB
:1006700042F04002C5E742F02002C9E742F0100212
:10068000CDE742F00802D1E742F00402D5E7491C69
:100690004268D20701D09942F9D14068C007E2D13F
:1006A000012010BD10B500EB0113D3F8B04114F0D8
:1006B00004041472D3F8B04133D0E4085460D3F882
:1006C000B04104F002045472D3F8B44104F00F04B2
:1006D0009472D3F8B441240AD474D3F8B841D472D4
:1006E000D3F8B841240A1473D3F8B841240C5473D6
:1006F000D3F8B841240E9473D3F8BC41D473D3F823
:10070000BC41240A1474D3F8BC41240C5474D3F8AB
:10071000BC311B0E937439B1016941F020010161B4
:1007200010BD640D1460CAE7C16841F02001C160CA
:1007300010BD000000B585B04FF40070009000209F
:100740008DF808008DF8090008208DF80A000F4880
:1007500001788DF80B1081788DF80C1001798DF8E7
:100760000D1081798DF80E10017A8DF80F10817AB5
:100770008DF81010017B8DF81110807B8DF8120020
:100780006946034800F016F805B000BD18000020C7
:100790000064004000218171C17101724172817257
:1007A000C1728170C1700321017102214171012167
:1007B0000180704730B50246002093685B0108D481
:1007C0009068000101D5012003E09068C00037D592
:1007D000022002EB0012D2F8803103F00103C2F8CC
:1007E00080310B7A73B3D2F880414D681C434B7A49
:1007F00043EAC5031C43C2F880418B7A03F00F0320
:100800008B72D2F8843123F00F03C2F88431D2F80E
:1008100084318C7A2343C2F88431CB7ACC6843EAA2
:100820000423C2F88831CB7B096943EA0121C2F86D
:100830008C11D2F8801141F00101C2F8801130BD55
:10084000042030BDD2F880314C7A23430C8843EA2F
:100850004453C2F88031D0E7024600200A4200D05B
:10086000012070477047F0B5002201274FF0030CBC
:100870000B6807FA02F52B40AB422CD106685300F7
:100880000CFA03F4A64306600E79D0F800E09E400F
:1008900046EA0E0606600E79012E01D0022E12D114
:1008A0008668A64386604E79D0F808E09E4046EA06
:1008B0000E0686604668AE43466045688E7996406F
:1008C000B6B235434560C568A543C560CC799C4048
:1008D000C3681C43C460521C102AC9D3F0BD4B0727
:1008E000DB0E9A40C90810B500EB8100016A0F24A5
:1008F0009C40A1430162016A1143016210BDFEE701
:10090000FEE7704730B50F23C27801780125FAB1B0
:10091000144A126801F1E02102F4E062C2F5E062DB
:10092000C2F30722C2F10404D3404278A240847883
:100930001C401443220181F80024007800F01F01BC
:100940008D404009800000F1E020C0F8005130BD2A
:1009500001F01F0085404809800000F1E020C0F848
:10096000805130BD0CED00E00249084302490860A7
:10097000704700000000FA050CED00E07047000031
:10098000044A0029116801D0014300E0814311604D
:100990007047000030380240044A0029116801D035
:1009A000014300E08143116070470000403802407D
:1009B000044A0029116801D0014300E0814311601D
:1009C000704700002038024070B5204B1968204C59
:1009D00011F00C0104D06610042903D0082903D0BB
:1009E00004601BE0066019E0184A121F1168C1F389
:1009F0008055116801F03F0115B1B6FBF1F101E03E
:100A0000B4FBF1F114681268C4F388146143C2F3B3
:100A10000142521C5200B1FBF2F1016019680F2231
:100A200002EA11110B4A545C0168E14041601C6804
:100A3000072505EA9424145D21FA04F484601B68F8
:100A400005EA5333D25CD140C16070BD0838024022
:100A50000024F40000000020704700000CB50022C4
:100A6000274900920192086840F4803008604FF4F2
:100A7000A043086800F4003001900098401C0090EA
:100A8000019810B900989842F3D10868800334D5D2
:100A9000012001901A484030026842F08052026002
:100AA0001848026842F44042026015480830026863
:100AB0000260026842F400420260026842F4A052FE
:100AC0000260031F104A1A600A6842F080720A60CE
:100AD0000A689201FCD50D4940F205720A6001686E
:100AE00021F003010160016841F002010160016829
:100AF000C1F381010229FAD10CBD01920CBD0000A5
:100B0000003802400070004008544007003C02409A
:100B10004FF0E0210428086903D020F004000861A8
:100B2000704740F00400FAE770470000124810B523
:100B3000016841F4700101601048016841F0010151
:100B400001600E4A00210832116002680C4B1A4005
:100B50000260031D0B4A1A60026822F480220260C0
:100B600006480C300160FFF779FF03494FF0006041
:100B70008039086010BD000088ED00E000380240B8
:100B8000FFFFF6FE1030002470B50B4C40F22555E7
:100B90002946204600F028F840B1204600F0B2F87F
:100BA000064908800146204600F0B0F82946204654
:100BB000BDE8704000F004B800440040140000207C
:100BC000C943018070470029818902D041F4005156
:100BD00001E021F400518181704702460020128813
:100BE0000A4200D00120704770B501F01F050126B0
:100BF0000024C1F3421306FA05F2012B0FD0022B99
:100C00000FD0838A4FEA11210088134206FA01F6B9
:100C100000EA060001D000B10124204670BD83899E
:100C2000F0E7038AEEE710B5C1F3421301F01F04A9
:100C30000121A140012B07D0022B07D01430002A3C
:100C4000026805D00A4304E00C30F8E71030F6E7FC
:100C50008A43026010BD00007FB50446008A0D463D
:100C6000C98820F4405001432182A08941F20C61DF
:100C70008843A9882A8911436A8902431143A181C3
:100C8000A08A20F44071A8890843A0826846FFF733
:100C90009BFE1A48844202D01948844201D103982D
:100CA00000E00298A189090400EBC00101EB0010EB
:100CB000296801D5490000E08900B0FBF1F0642209
:100CC000B0FBF2F109010B096FF018056B4300EB63
:100CD0008300A3891D044FF0320306D503EBC00047
:100CE000B0FBF2F000F0070005E003EB0010B0FBF2
:100CF000F2F000F00F00084320817FBD001001409A
:100D0000001401408088C0F308007047C1F3080157
:100D100081807047FEE700000FB4054B10B503A9B2
:100D2000044A029800F018F810BC5DF814FB0000AB
:100D3000D90E00082800002002E008C8121F08C1D0
:100D4000002AFAD170477047002001E001C1121F4C
:100D5000002AFBD1704700002DE9FF4F89B09B4668
:100D60000446002506E025280BD05A460B999047EB
:100D7000641C6D1C20780028F5D10DB02846BDE814
:100D8000F08F0027B8460122474900E0074314F8D6
:100D9000013F203B02FA03F00842F7D120782E28C9
:100DA00019D114F8010F47F004072A280ED06FF06C
:100DB0002F022078A0F1300109290CD808EB880116
:100DC00002EB410100EB0108641CF2E70A98641C85
:100DD00050F8048B0A9020780028CED0642808D0E0
:100DE000692806D075281ED05A460B9990476D1C6D
:100DF00058E00A994FF00A0901C90A91002802DA5D
:100E000040422D2102E0390504D52B218DF8201018
:100E1000012103E0F90704D02021F7E78A4608AE54
:100E20000DE00021FAE70A994FF00A0901C90A9179
:100E3000F7E74946FFF7C4F9303106F8011D0028ED
:100E4000F7D1ADEB060000F12009780701D44FF08F
:100E50000108C84502DDA8EB090000E0002080463B
:100E6000002706E008A85A46C05D0B9990476D1C04
:100E70007F1C5745F6DB04E030205A460B9990471B
:100E80006D1CB8F10001A8F10108F5DC05E016F8C9
:100E9000010B5A460B9990476D1CB9F10001A9F15D
:100EA0000109F4DC641C65E70928010010B504465B
:100EB0006FF00400FFF72CFE0649E00800EB40024B
:100EC0000870C2EBC0104FF6FF7202EAC000488003
:100ED00010BD00001000002070B5074D0446C1B2DF
:100EE0002846FFF713FF40212846FFF776FE00282B
:100EF000F9D0204670BD000000440040A820FFF754
:100F0000D5FF4FF4A060FFF72FFD00F011F8FFF7B9
:100F100081F902A0FFF700FFFEE70000B4AEBFDAE0
:100F2000B2E2CAD42663616EB2E2CAD40000000005
:100F30002DE9F041012188B00846FFF721FD01218C
:100F40004804FFF729FDDFF8908007220221404680
:100F5000FFF7C5FC072203214046FFF7C0FC02272C
:100F60008DF8147003208DF8150000240C268DF8E0
:100F70001640012504968DF8175004A94046FFF746
:100F800072FCADF80440ADF80640ADF80840ADF88D
:100F90000C404FF4E130114C0090ADF80A60694606
:100FA0002046FFF759FE01212046FFF70CFE0122E3
:100FB00040F225512046FFF736FE26208DF8180016
:100FC0008DF819508DF81A708DF81B5006A8FFF790
:100FD00099FC08B0BDE8F0810000024000440040E8
:100FE00000100008000000202C000000380D000850
:100FF0002C1000082C00002004040000480D0008FC
:1010000000000000010203040102030406070809AE
:1010100000000000000000000000010002000300CA
:0C102000040005000600070000000000AE
:040000050800018965
:00000001FF
