:020000040800F2
:10000000480400209D010008530D00084F0D000812
:10001000510D000887020008591200080000000076
:10002000000000000000000000000000310F000888
:10003000B50C000800000000CD0D000801100008FC
:10004000B7010008B7010008B7010008B7010008B0
:10005000B7010008B7010008B7010008B7010008A0
:10006000B7010008B7010008B7010008B701000890
:10007000B1080008ED080008B7010008B701000842
:1000800025090008B7010008B70100081904000895
:100090008D030008B7010008B7010008B701000888
:1000A000B7010008B7010008B7010008B701000850
:1000B000B7010008B7010008B7010008B701000840
:1000C000B7010008B7010008B7010008B701000830
:1000D000B701000861100008B7010008A11000086E
:1000E000B7010008B7010008B7010008B701000810
:1000F000B7010008B7010008B7010008B701000800
:10010000B7010008B7010008B7010008B7010008EF
:10011000B7010008B7010008B7010008B7010008DF
:10012000B7010008B7010008B7010008B7010008CF
:10013000B7010008B7010008B7010008B7010008BF
:10014000B7010008B7010008B7010008B7010008AF
:1001500061090008B7010008B7010008B7010008ED
:10016000B7010008B7010008B7010008B70100088F
:10017000B7010008B7010008B7010008B70100087F
:10018000B7010008B7010008DFF80CD000F04AF80A
:10019000004800471516000848040020064880471C
:1001A00006480047FEE7FEE7FEE7FEE7FEE7FEE75C
:1001B000FEE7FEE7FEE7FEE70510000889010008FC
:1001C0002DE9F05F0546002092469B46884606468C
:1001D000814640241BE0284641464746224600F01F
:1001E00042F853465A46C01A914110D31146184658
:1001F000224600F029F82D1A67EB01084F462246E7
:100200000120002100F020F817EB00094E41201ECC
:10021000A4F10104DFDC484631462A464346BDE8E6
:10022000F09F0000064C074D06E0E06840F0010337
:1002300094E8070098471034AC42F6D3FFF7A8FFC4
:100240004018000860180008202A04DB203A00FA51
:1002500002F1002070479140C2F1200320FA03F31D
:10026000194390407047202A04DB203A21FA02F01B
:100270000021704721FA02F3D040C2F120029140E0
:10028000084319467047FEE770B501218AB0084659
:1002900000F09EFD0121480600F0A6FD394C092220
:1002A0000B21204600F043FD09220C21204600F0DE
:1002B0003EFD4FF4C051089102218DF8241008A989
:1002C000204600F0F8FC14208DF81C0000248DF866
:1002D0001D4001258DF81E508DF81F5007A800F015
:1002E00039FD13208DF81C008DF81D508DF81E501F
:1002F0008DF81F5007A800F02DFD234E304600F06A
:10030000DBF8684600F06BFA8DF806408DF8074080
:1003100008208DF808408DF802408DF80400032174
:100320008DF809408DF803408DF80A408DF80510CE
:10033000ADF800108DF80B506946304600F094F986
:100340008DF816408DF817408DF81850ADF80C4018
:10035000ADF81040ADF80E40ADF81240ADF81440C5
:100360008DF8195003A800F0BDF801220221304693
:1003700000F072F901221146304600F06DF90AB022
:1003800070BD0000000002400064004010B50B4C3E
:1003900086B00221204600F00BF900280CD0022183
:1003A000204600F04DF86A460021204600F0D0F9C2
:1003B00003A0009900F052FF06B010BD0064004099
:1003C00025780A0000B585B04FF400700090002039
:1003D0008DF808008DF8090008208DF80A0090219A
:1003E00001208DF80C108DF80D008DF80E108DF891
:1003F0000B008DF80F008DF8101004208DF81100FF
:10040000B0208DF812006946024800F0F8F905B0F6
:1004100000BD00000064004010B5074C01212046DB
:1004200000F0C6F8002806D00121204600F008F8A8
:1004300002490120087010BD006400401400002033
:1004400030B5082310240422B1F5007F1DD010DC44
:10045000202929D007DC012921D0042922D008290C
:1004600000D1C46030BD402920D0B1F5807FF9D1E2
:100470000BE00025B1F5004F06D008DCB1F5806F28
:1004800003D0B1F5006FEDD18561426030BDB1F5AB
:10049000803F0DD0B1F5003FF8D1446030BD054933
:1004A000816030BDC36030BD036130BD046130BDCB
:1004B000436030BD01010100094910B588424FF089
:1004C000010101D14C0601E04FF08064204600F0AC
:1004D00097FC2046BDE81040002100F091BC0000D0
:1004E00000640040F0B5827A2F4D012191402A68C6
:1004F00042F001022A602C4E1C3632688A43326078
:10050000294A047B294B0C32A4B914688C4314602B
:100510004488C78844EA0744877A03EBC707C7F8CB
:1005200040460488878844EA0744877A03EBC70774
:10053000C7F84446047B012C12D114680C431460A4
:10054000847A026803EBC4044FEA3242C4F84026BE
:10055000847A426803EBC4034FEA3242C3F844266C
:10056000114AC37A121D002B136806D00B43136087
:100570000D4A0389143213B104E08B43F7E7136883
:100580008B4313600389012B02D113680B43136063
:10059000407B012802D1306808433060286820F091
:1005A00001002860F0BD00000066004000600040CF
:1005B0000246002053690B424AD0B1F5807F3BD000
:1005C00013DC08292ED007DC012926D0022927D0E8
:1005D00004293DD1D0682BE0102925D0202926D030
:1005E000402935D11069102130E0B1F5004F2BD0F2
:1005F0000BDCB1F5007F22D0B1F5806F22D0B1F5D0
:10060000006F25D19069702120E0B1F5803F11D0B5
:10061000B1F5003F1CD15068E5E790680D4915E041
:10062000D06802E0D068DEE7106903210EE01069AF
:1006300008210BE05068FBE79069012106E0906912
:10064000022103E0906900E05068042100F029B91C
:100650007047000001010100002A426901D00A43ED
:1006600000E08A434261704710B50368002223F01E
:1006700002030360036843F0010303604FF6FF7356
:1006800000E0521C4468E40701D19A42F9D1426863
:10069000D2073ED08A79012A02683CD022F080023B
:1006A0000260CA79012A026838D022F04002026052
:1006B0000A7A012A026834D022F0200202604A7AC3
:1006C000012A026830D022F0100202608A7A012AE0
:1006D00002682CD022F008020260CA7A012A02685D
:1006E00028D022F0040202608A78CC78920742EA8D
:1006F00004620C7942EA04424C79098842EA0452C5
:10070000491E0A43C261016821F001010160002114
:1007100014E0002010BD42F08002C1E742F0400228
:10072000C5E742F02002C9E742F01002CDE742F0EF
:100730000802D1E742F00402D5E7491C4268D2071B
:1007400001D09942F9D14068C007E2D1012010BD23
:1007500010B500EB0113D3F8B04114F00404147287
:10076000D3F8B04133D0E4085460D3F8B04104F07A
:1007700002045472D3F8B44104F00F049472D3F815
:10078000B441240AD474D3F8B841D472D3F8B84130
:10079000240A1473D3F8B841240C5473D3F8B84125
:1007A000240E9473D3F8BC41D473D3F8BC41240A0B
:1007B0001474D3F8BC41240C5474D3F8BC311B0E10
:1007C000937439B1016941F02001016110BD640DDC
:1007D0001460CAE7C16841F02001C16010BD00216A
:1007E0008171C171017241728172C1728170C17077
:1007F000032101710221417101210180704730B54F
:100800000246002093685B0108D49068000101D57E
:10081000012003E09068C00037D5022002EB0012EF
:10082000D2F8803103F00103C2F880310B7A73B340
:10083000D2F880414D681C434B7A43EAC5031C4300
:10084000C2F880418B7A03F00F038B72D2F88431A7
:1008500023F00F03C2F88431D2F884318C7A234319
:10086000C2F88431CB7ACC6843EA0423C2F88831D9
:10087000CB7B096943EA0121C2F88C11D2F88011BF
:1008800041F00101C2F8801130BD042030BDD2F822
:1008900080314C7A23430C8843EA4453C2F88031B8
:1008A000D0E7024600200A4200D001207047000035
:1008B00070B50A4D0A4C2946204600F07BF9002805
:1008C0000AD00849204600F065F82946204600F085
:1008D00077F805490120087070BD000000880010FD
:1008E00028600240000800101500002070B50A4D75
:1008F0000A4C2946204600F05DF900280BD04FF045
:100900008151204600F046F82946204600F058F86C
:1009100003490120087070BD008020104060024033
:100920001500002010B50A4C0849204600F042F995
:1009300000280AD00749204600F02CF80649204636
:1009400000F03EF805490120087010BD0088001035
:100950008860024000080020008800201500002068
:1009600070B5094D094C2946204600F023F90028AE
:1009700009D00749204600F00DF829462046BDE879
:10098000704000F01DB870BD0088002088640240EF
:1009900000080020074A904201D2074801E00548BC
:1009A0001038064A8B0001EA020101D5C160704788
:1009B0008160704710640240006002407D0F7D0F2F
:1009C000074A904201D2074801E005481038064A1C
:1009D0008B0001EA020101D5C16070478160704758
:1009E00010640240006002407D0F7D0F0029016805
:1009F00002D041F0010101E021F0010101607047E6
:100A00002DE9F04190B004461C480F46DDF85880AF
:100A10001D46164684424FF0010101D9880501E0C8
:100A20004FF4001000F0D4F9204600F029F82046D9
:100A300000F0B8F80028FAD10021CDE90251CDF834
:100A400010804FF48060CDE905108010CDE90810CA
:100A50004FF44030CDE90A0107910320CDE90C01A4
:100A6000CDE900760E916946204600F0E3F80121B9
:100A70002046FFF7BBFF10B0BDE8F08100640240E4
:100A80002DE9F043016821F00101016000210160BE
:100A900041608160C1600161212141613C493C4A62
:100AA0003D251039904202D18D60BDE8F083384A6F
:100AB0004FF474661832904201D18E60F5E7344AE3
:100AC0004FF474173032904201D18F60EDE7304A15
:100AD0004FF0746C4832904202D1C1F808C0E4E78C
:100AE0002B4B2C4A6033984201D1CA60DDE7284C79
:100AF000294B7834A04201D1CB60D6E7DFF8908053
:100B0000264C08F19008404501D1CC60CDE7DFF8D4
:100B100080804FF03D5908F1A808404502D1C1F846
:100B20000C90C2E71E49DFF878800839404501D1B2
:100B30000D60BAE71A4D1835A84201D10E60B4E72E
:100B4000174D3035A84201D10F60AEE7144D48353E
:100B5000A84202D1C1F800C0A7E7114D1049603585
:100B6000091FA84201D10A609FE70D4A78329042DE
:100B700001D10B6099E70A4A9032904201D10C6092
:100B800093E7074AA83290428FD1C1F800908CE7D2
:100B9000106002403D000020400F002000003D207A
:100BA00010640240014600200968C90700D00120F6
:100BB0007047000030B5104A0024904201D20F4A1D
:100BC00001E00D4A103A0E4B194205D01E2303EAEC
:100BD000D12503682B4002E0406900F080038800C3
:100BE00001D5506800E01068064A1040084201D064
:100BF00003B10124204630BD106402400060024071
:100C00003C0F3C0F7D0F7D0F0B0607D5436912B1DA
:100C100043F0800301E023F080034361802908D082
:100C2000002A026801F01E0101D00A4300E08A4355
:100C30000260704730B50368124ACC6813400A68F6
:100C40002243D1E905452C432243CC6922430C6A57
:100C500022434C6A22438C6A22434C6B22438C6BA6
:100C600022431A430260426922F00703D1E90B24B0
:100C700022431A4342610A6942604A688260896875
:100C8000C16030BD3F801CF038B50D468DF80000C6
:100C900004998DF801308DF8021001208DF80300C1
:100CA0001446684600F056F8012221462846FFF710
:100CB000ABFF38BD7047F0B5002201274FF0030CA1
:100CC0000B6807FA02F52B40AB422CD106685300A3
:100CD0000CFA03F4A64306600E79D0F800E09E40BB
:100CE00046EA0E0606600E79012E01D0022E12D1C0
:100CF0008668A64386604E79D0F808E09E4046EAB2
:100D00000E0686604668AE43466045688E7996401A
:100D1000B6B235434560C568A543C560CC799C40F3
:100D2000C3681C43C460521C102AC9D3F0BD4B07D2
:100D3000DB0E9A40C90810B500EB8100016A0F2450
:100D40009C40A1430162016A1143016210BDFEE7AC
:100D5000FEE7704730B50F23C27801780125FAB15C
:100D6000144A126801F1E02102F4E062C2F5E06287
:100D7000C2F30722C2F10404D3404278A24084782F
:100D80001C401443220181F80024007800F01F0168
:100D90008D404009800000F1E020C0F8005130BDD6
:100DA00001F01F0085404809800000F1E020C0F8F4
:100DB000805130BD0CED00E0024908430249086053
:100DC000704700000000FA050CED00E070470000DD
:100DD000044A0029116801D0014300E081431160F9
:100DE0007047000030380240044A0029116801D0E1
:100DF000014300E081431160704700004038024029
:100E0000044A0029116801D0014300E081431160C8
:100E10007047000020380240044A0029116801D0C0
:100E2000014300E0814311607047000044380240F4
:100E300070B5204B1968204C11F00C0104D01F4EE6
:100E4000042903D0082903D004601BE0066019E0E0
:100E5000184A121F1168C1F38055116801F03F0153
:100E600015B1B6FBF1F101E0B4FBF1F114681268C1
:100E7000C4F388146143C2F30142521C5200B1FB17
:100E8000F2F1016019680F2202EA11110C4A545C58
:100E90000168E14041601C68072505EA9424145D5F
:100EA00021FA04F484601B6805EA5333D25CD14014
:100EB000C16070BD083802400024F40040787D0114
:100EC0000000002018480188C1F30A0217490A806F
:100ED0004278D308827843EA4213C3F30A034B8073
:100EE000C378920942EA8303027943EA8223C3F377
:100EF0000A038B805308427943EAC213C3F30A03FF
:100F0000CB8093090B72C2F301124A72C2884A81E4
:100F100002898A814289CA81027B0A74427B4A74AF
:100F2000C0894882704700001C0000202E0000206D
:100F3000704700000CB50022274900920192086812
:100F400040F4803008604FF4A043086800F400309B
:100F500001900098401C0090019810B900989842A8
:100F6000F3D10868800334D5012001901A4840303D
:100F7000026842F0805202601848026842F440421F
:100F800002601548083002680260026842F40042BC
:100F90000260026842F4A0520260031F104A1A6005
:100FA0000A6842F080720A600A689201FCD50D4915
:100FB00040F205720A60016821F0030101600168D6
:100FC00041F0020101600168C1F381010229FAD1F7
:100FD0000CBD01920CBD00000038024000700040C2
:100FE00019544007003C02404FF0E02104280869F2
:100FF00003D020F004000861704740F00400FAE7D5
:1010000070470000124810B5016841F4700101609A
:101010001048016841F0010101600E4A00210832C8
:10102000116002680C4B1A400260031D0B4A1A60E3
:10103000026822F48022026006480C300160FFF74B
:1010400079FF03494FF000608039086010BD00004F
:1010500088ED00E000380240FFFFF6FE103000246B
:1010600070B50A4D40F225542146284600F048F854
:1010700028B107A000F0F2F8284600F0E5F8214674
:101080002846BDE8704000F01FB800000010014085
:101090000A555341525431D6D0B6CF210A00000030
:1010A00070B5084D40F225542146284600F028F836
:1010B00010B1284600F0C8F821462846BDE8704027
:1010C00000F002B800480040C94301807047002981
:1010D000818902D041F4005101E021F40051818165
:1010E0007047002A828A01D00A4300E08A43828244
:1010F00070470246002012880A4200D00120704743
:1011000070B501F01F0501260024C1F3421306FA51
:1011100005F2012B0FD0022B0FD0838A4FEA112149
:101120000088134206FA01F600EA060001D000B179
:101130000124204670BD8389F0E7038AEEE710B5ED
:10114000C1F3421301F01F040121A140012B07D07C
:10115000022B07D01430002A026805D00A4304E0AD
:101160000C30F8E71030F6E78A43026010BD00004B
:101170007FB50446008A0D46C98820F440500143DB
:101180002182A08941F20C618843A9882A891143F0
:101190006A8902431143A181A08A20F44071A88981
:1011A0000843A0826846FFF743FE1A48844202D0F3
:1011B0001948844201D1039800E00298A1890904EA
:1011C00000EBC00101EB0010296801D5490000E0E7
:1011D0008900B0FBF1F06422B0FBF2F109010B09C8
:1011E0006FF018056B4300EB8300A3891D044FF0DB
:1011F000320306D503EBC000B0FBF2F000F00700AD
:1012000005E003EB0010B0FBF2F000F00F00084324
:1012100020817FBD001001400014014038B50D460B
:101220008DF8000004998DF801308DF8021001202E
:101230008DF8030014466846FFF78CFD0122214615
:101240002846FFF77CFF38BD8088C0F30800704750
:10125000C1F3080181807047FEE700000FB4054B21
:1012600010B503A9044A029800F018F810BC5DF804
:1012700014FB0000F11500081800002002E008C867
:10128000121F08C1002AFAD170477047002001E000
:1012900001C1121F002AFBD1704700002DE9FF4F4A
:1012A0008DB09B460F460446002606E025280BD04D
:1012B0005A460F999047641C761C20780028F5D177
:1012C00011B03046BDE8F08F0025A84601229849AC
:1012D00000E0054314F8013F203B02FA03F0084206
:1012E000F7D120782E2817D114F8010F45F0040506
:1012F0002A280ED06FF02F022078A0F130010929A2
:101300000AD808EB880102EB410100EB0108641CDC
:10131000F2E757F8048B641C20786C280DD004DCAD
:101320004C2812D06A2811D104E074280DD07A28F4
:101330000CD10AE045F4001507E0617845F480150A
:10134000814202D1641C05F58015641C2278692A4B
:1013500045D008DC002AB3D0582A69D0632A10D0BF
:10136000642A08D13BE0702A67D0732A13D0752A0B
:101370005CD0782A5CD010465A460F999047761C6C
:10138000D3E017F8040B8DF8000000208DF8010061
:10139000E946012003E057F8049B4FF0FF3069074E
:1013A0004FF0000501D40AE06D1C45450DDA854279
:1013B000FADB19F805100029F6D106E06D1C85420C
:1013C000FCDB19F805100029F8D12E4404E019F8C7
:1013D000010B5A460F9990476D1EF8D2A5E00A20DE
:1013E0000021CDE90801C5F3025002280DD001CF3C
:1013F000C117031E71F100030DDA4FF0000CD0EBA2
:101400000C006CEB01012D2308E0FF1D27F00707FE
:10141000F7E80201EDE72B0504D52B238DF82830E2
:1014200001233BE0EB0739D02023F7E70A2000E057
:1014300010200021CDE9080107E01020002145F02F
:101440000405CDE908014FF00808C5F30250022851
:101450000FD001CF00214FF0000A2B071FD5702AB3
:101460000DD0DDE908C38CF0100C5CEA030C0CD045
:1014700015E0FF1D27F00707F7E80201EBE7402220
:101480008DF828204FF0010A0BE050EA010306D046
:1014900030238DF828308DF8292002239A46582AC7
:1014A00004D024A20DF120090B9209E026A2F9E74D
:1014B000DDE90823FEF784FE0B9B9B5C09F8013DE8
:1014C00050EA0102F4D1ADEB090020300890680722
:1014D00001D44FF001080899884502DDA8EB01000E
:1014E00000E000208046002506E00AA85A46405D3C
:1014F0000F9990476D1C761C5545F6DB04E03020B3
:101500005A460F999047761CB8F10001A8F10108DE
:10151000F5DC05E019F8010B5A460F999047761C47
:101520000899481E08900029F4DC641CC5E60000F8
:1015300009280100303132333435363738396162A9
:10154000636465660000000030313233343536376D
:1015500038394142434445460000000010B5044676
:101560006FF00400FFF740FD0649E00800EB400281
:101570000870C2EBC0104FF6FF7202EAC00048804C
:1015800010BD00001000002070B54FF40776B0FBCE
:10159000F6F1CCB2B0FBF6F106FB110504E03046E3
:1015A00000F00CF8641EE4B2002CF8D1002D04D039
:1015B0002846BDE8704000F001B870BD0B4949886D
:1015C00048434FF0E021486100238B61086940F0F7
:1015D000010008610869C20701D0C003FAD5086993
:1015E00020F0010008618B617047000010000020AE
:1015F00070B5074D0446C1B22846FFF729FE4021C9
:101600002846FFF776FD0028F9D0204670BD00007F
:101610000010014008B5A820FFF7A0FF4FF4A0601C
:10162000FFF7CAFB00F0BEF8FEF72EFE00F06EF8E2
:101630001220284A284C0090254B51062046FFF7DF
:10164000DFF9022200920123102221460C20FFF72D
:101650001BFB22A0FFF702FE23A0FFF7FFFD244D96
:101660001420FFF791FFFEF7ADFE28780128F7D18F
:1016700000202870FFF726FC1EA0FFF7EFFD214C8D
:1016800021A02188FFF7EAFD61881FA0FFF7E6FD92
:10169000A1881DA0FFF7E2FDE1881BA0FFF7DEFD9A
:1016A000217A19A0FFF7DAFD617A17A0FFF7D6FDBE
:1016B000B4F90A1014A0FFF7D1FDB4F90C1012A070
:1016C000FFF7CCFDB4F90E100FA0FFF7C7FDC7E779
:1016D0001C000020044800402860024043414ECDD9
:1016E000A8D0C5B2E2CAD4000AD6F7BBFA0A0000F5
:1016F000150000200ABDE2C2EBBAF3B5C4D0C5CFD5
:10170000A23A0A002E00002025640A0030B587B0F6
:1017100001210420FFF75CFB01218804FFF764FB33
:101720001D4D07220A212846FFF701FB07220B2146
:101730002846FFF7FCFA40F60A00049002208DF8D4
:10174000140003208DF8150000248DF816400121A7
:101750008DF8171004A92846FFF7ADFA0F4800903E
:10176000ADF804402815ADF80640ADF80800ADF816
:101770000C400C200A4CADF80A0069462046FFF7E1
:10178000F7FC01212046FFF7A2FC01224021204660
:10179000FFF7A7FC07B030BD00080240A08601009B
:1017A0000048004070B5012188B00846FFF710FBE3
:1017B00001211020FFF730FB1F4E07220A2130467F
:1017C000FFF7B5FA072209213046FFF7B0FA4FF4C8
:1017D000C060059002208DF8180003208DF81900D4
:1017E00000248DF81A4001258DF81B5005A93046BC
:1017F000FFF761FA4FF4E130ADF808400190ADF821
:101800000A40ADF80C40ADF810400C200B4CADF880
:101810000E0001A92046FFF7ABFC01212046FFF78F
:1018200056FC012340F22552214625200095FFF762
:10183000F5FC08B070BD000000000240001001403F
:1018400060180008000000201C0000007C12000846
:101850007C1800081C0000202C0400008C120008DA
:101860000000000001020304010203040607080946
:0C1870000000000000000000000000006C
:040000050800018965
:00000001FF
